:100000000C945D000C9485000C9485000C94850084
:100010000C9485000C9485000C9485000C9485004C
:100020000C9485000C9485000C9485000C94550567
:100030000C9485000C9485000C9485000C9485002C
:100040000C940B050C9485000C94A1040C947B0477
:100050000C9485000C9485000C9485000C9485000C
:100060000C9410060C94850000000000240027006A
:100070002A0000000000250028002B0004040404CE
:100080000404040402020202020203030303030342
:10009000010204081020408001020408102001021F
:1000A00004081020000000080002010000030407FB
:1000B0000000000000000000DD0D11241FBECFEF86
:1000C000D8E0DEBFCDBF12E0A0E0B1E0E8EEF0E2A4
:1000D00002C005900D92A234B107D9F724E0A2E442
:1000E000B2E001C01D92A536B207E1F710E0CDE500
:1000F000D0E004C02197FE010E94350FCC35D10716
:10010000C9F70E943A090C9472100C940000CF9227
:10011000DF92EF92FF920F931F93CF93DF937C01B7
:100120006A018B01C0E0D0E0CC15DD0579F0D80183
:100130006D918D01D701ED91FC910190F081E02D41
:10014000C7010995892B11F02196EECFCE01DF91E1
:10015000CF911F910F91FF90EF90DF90CF90089576
:10016000FC01918D828D981761F0828DDF01A80FBF
:10017000B11D5D968C91928D9F5F9F73928F90E0E1
:1001800008958FEF9FEF0895FC01918D828D981750
:1001900031F0828DE80FF11D858D90E008958FEF8D
:1001A0009FEF0895FC01918D228D892F90E0805C56
:1001B0009F4F821B91098F739927089581E493E0E3
:1001C0000E94D20021E0892B09F420E0822F0895BB
:1001D000FC01848DDF01A80FB11DA35ABF4F2C91E4
:1001E000848D90E001968F739927848FA689B789B3
:1001F0002C93A089B1898C9180648C93938D848D8C
:10020000981306C00288F389E02D80818F7D80835A
:100210000895EF92FF920F931F93CF93DF93EC011A
:10022000F62E81E0888F9B8D8C8D981305C0E88910
:10023000F989808185FD2CC00B8D10E00F5F1F4F69
:100240000F731127E02E8C8DE8120CC00FB607FC3F
:10025000FACFE889F989808185FFF5CFCE010E9428
:10026000E800F1CF8B8DFE01E80FF11DE35AFF4F3F
:10027000F0820B8FEA89FB8980818062808381E034
:1002800090E0DF91CF911F910F91FF90EF90089533
:10029000EE89FF896083E889F98980818064EECFE7
:1002A000CF93DF93EC01888D882351F0EA89FB8995
:1002B000808185FD08C0A889B9898C9186FF03C01B
:1002C000DF91CF9108950FB607FCF2CF808185FFB3
:1002D000EFCFE889F989808185FFE8CFCE010E94C0
:1002E000E800E4CF80E090E0892B29F00E94DE0056
:1002F00081110C940000089590E0FC01EC55FF4F33
:100300003491FC01E057FF4F2491FC01E458FF4F6A
:10031000E491EE23C9F0332339F0333001F1A8F42E
:10032000313019F1323029F1F0E0EE0FFF1FEE58B5
:10033000FF4FA591B4918FB7F894EC91611126C04D
:1003400020952E232C938FBF08953730A9F0383095
:10035000C9F0343049F7809180008F7D03C08091CF
:1003600080008F7780938000DFCF84B58F7784BD46
:10037000DBCF84B58F7DFBCF8091B0008F778093EA
:10038000B000D2CF8091B0008F7DF9CF2E2BDACF85
:10039000CF93DF9390E0FC01E057FF4F2491845806
:1003A0009F4FFC0184918823C9F090E0880F991F2A
:1003B000FC01E859FF4FA591B491FC01EE58FF4FA5
:1003C000C591D49161110DC09FB7F8948C9120957F
:1003D00082238C938881282328839FBFDF91CF912C
:1003E0000895623051F49FB7F8943C91822F809524
:1003F00083238C93E8812E2BEFCF8FB7F894EC9169
:100400002E2B2C938FBFEACF789484B5826084BD65
:1004100084B5816084BD85B5826085BD85B5816008
:1004200085BDEEE6F0E0808181608083E1E8F0E068
:100430001082808182608083808181608083E0E897
:10044000F0E0808181608083E1EBF0E08081846076
:100450008083E0EBF0E0808181608083EAE7F0E078
:1004600080818460808380818260808380818160DC
:1004700080838081806880831092C10008953FB797
:10048000F89480918C0290918D02A0918E02B0918F
:100490008F0226B5A89B05C02F3F19F00196A11D1C
:1004A000B11D3FBFBA2FA92F982F8827BC01CD01BE
:1004B000620F711D811D911D42E0660F771F881F1D
:1004C000991F4A95D1F708952FB7F8946091880243
:1004D0007091890280918A0290918B022FBF0895BA
:1004E0000895089585ED8093BC008091BC0084FD43
:1004F000FCCF10924004089540916202262F30E014
:10050000240F311D21323105DCF4209140042430C8
:10051000C9F4FC0180E090E0861738F08091620217
:10052000680F6093620280E0089530916202219129
:10053000DC01AE5BBD4FA30FB11D2C930196ECCF38
:1005400081E0089582E008951092400481E0809354
:100550003F0410923A0461E082E10E947C0161E074
:1005600083E10E947C01E9EBF0E080818E7F808353
:1005700080818D7F808388E48093B80085E48093B8
:10058000BC00089508958091E90390E02091E8036C
:1005900030E08217930734F48F5B9B4FFC0180811E
:1005A00090E008958FEF9FEF08952091E903822F47
:1005B00090E04091E80350E0841795074CF48F5B7E
:1005C0009B4FFC01808190E02F5F2093E903089509
:1005D0008FEF9FEF08958091E80390E02091E90369
:1005E000821B91090895CF92DF92EF92FF920F93B1
:1005F0001F93CF93DF937C01CB018A012091F603F7
:10060000222389F0EB016B01C40ED51ECC15DD054C
:1006100069F06991D701ED91FC910190F081E02D95
:10062000C7010995F3CF642F0E947C02C801DF91B6
:10063000CF911F910F91FF90EF90DF90CF90089591
:10064000CF93DF931F92CDB7DEB769832091F60376
:10065000222309F12091F90330E0203231055CF0CA
:1006600021E030E0FC013383228380E090E00F90B2
:10067000DF91CF9108958091F703E82FF0E0E650E5
:10068000FC4F998190838F5F8093F7038093F903E8
:1006900081E090E0ECCF61E0CE0101960E947C0207
:1006A000F7CF84E391E00E9402088FEF92E00E946E
:1006B000D30860E085E00E947C0160E086E00E9453
:1006C0007C0160E087E00E947C0188EE93E00E945C
:1006D0009C088091080390E09093FE028093FD02B5
:1006E00008950C94D30F8F929F92AF92BF92CF92A6
:1006F000DF92EF92FF920F931F93CF93DF93CDB7CB
:10070000DEB762970FB6F894DEBF0FBECDBF6C01A7
:100710008B0184E2DB011D928A95E9F784E290E087
:10072000A0E0B0E0FB0180839183A283B383F60154
:1007300084819581A681B781FB0184839583A683FB
:10074000B78383E090E0A0E0B0E080879187A28744
:10075000B3870E946402D80150966D937D938D9368
:100760009C935397FE0131968CE0DF011D928A9590
:10077000E9F77E01BDE0EB0EF11C86E0F701119276
:100780008A95E9F7D60113968C9191E09093F60340
:100790008093F8031092F7031092F9036AE18AEE4E
:1007A00093E00E94200381E00E94C60766E0F60104
:1007B00083810E94D407D12C8AEE93E00E94D50257
:1007C000D7018D937D01D394B6E0DB12F5CF6D8513
:1007D0007E85072E000C880B990B0E94070E20E0E7
:1007E00030E040E85DE30E94470E4B015C016F85FD
:1007F0007889072E000C880B990B0E94070E20E0C9
:1008000030E040E85DE30E94470E6B017C0169899E
:100810007A89072E000C880B990B0E94070E20E0A6
:1008200030E040E85DE30E94470EF801848A958A33
:10083000A68AB78AC08ED18EE28EF38E648F758FB2
:10084000868F978F81E062960FB6F894DEBF0FBE59
:10085000CDBFDF91CF911F910F91FF90EF90DF906F
:10086000CF90BF90AF909F908F9008950F931F935C
:10087000CF93DF938C01EB0188E2FB0111928A9503
:10088000E9F74BE050E06FE371E0CE010E946310A6
:100890001B8681E090E0A0E0B0E08C879D87AE876A
:1008A000BF87F80184819581A681B781888B998B58
:1008B000AA8BBB8B83E090E0A0E0B0E08C8B9D8B9B
:1008C000AE8BBF8B1CA21DA21EA21FA2188E198E5A
:1008D0001A8E1B8E1C8E1D8E1E8E1F8E8AE097ED2B
:1008E000A3E2BCE388A399A3AAA3BBA3DF91CF9102
:1008F0001F910F9108951F920F920FB60F9211241E
:100900002F933F934F935F936F937F938F939F9317
:10091000AF93BF93EF93FF9381E493E00E94E800CD
:10092000FF91EF91BF91AF919F918F917F916F91C7
:100930005F914F913F912F910F900FBE0F901F909D
:1009400018951F920F920FB60F9211242F938F9329
:100950009F93EF93FF93E0915103F09152038081B5
:10096000E0915703F091580382FD1BC09081809164
:100970005A038F5F8F7320915B03821741F0E091E0
:100980005A03F0E0EF5BFC4F958F80935A03FF9181
:10099000EF919F918F912F910F900FBE0F901F900D
:1009A00018958081F4CF8F929F92AF92BF92CF9291
:1009B000DF92EF92FF926B017C010E943F024B019C
:1009C0005C01C114D104E104F104C9F4FF90EF907B
:1009D000DF90CF90BF90AF909F908F90089521E0CF
:1009E000C21AD108E108F10888EE880E83E0981E4B
:1009F000A11CB11CC114D104E104F10411F30E9443
:100A00003F02681979098A099B09683E734081058C
:100A1000910528F7D6CF1F920F920FB60F9211248F
:100A20002F933F938F939F93AF93BF9380918802AF
:100A300090918902A0918A02B0918B023091870235
:100A400023E0230F2D3758F50196A11DB11D2093EA
:100A500087028093880290938902A0938A02B093C0
:100A60008B0280918C0290918D02A0918E02B091A8
:100A70008F020196A11DB11D80938C0290938D026F
:100A8000A0938E02B0938F02BF91AF919F918F91EF
:100A90003F912F910F900FBE0F901F90189526E851
:100AA000230F0296A11DB11DD2CF1F920F920FB638
:100AB0000F9211242F933F934F935F936F937F93E4
:100AC0008F939F93AF93BF93EF93FF938091860291
:100AD00087FF27C0109285001092840080918602C3
:100AE0008F5F8093860220918602022E000C330BCA
:100AF0008091850290E0281739072CF480918602B6
:100B00008C300CF444C08091840090918500049650
:100B100080349C4990F180918400909185000496E6
:100B20002EC020918602022E000C330B809185028C
:100B300090E02817390794F6E09186028E2FEE0F89
:100B4000990BFC01EE0FFF1FE80FF91FE35EFC4F4E
:100B5000808186FFC3CFE09186028E2FEE0F990B26
:100B6000FC01EE0FFF1FE80FF91FE35EFC4F8081D1
:100B700060E08F730E947C01B1CF80E49CE9909388
:100B80008900809388008FEF8093860238C020917F
:100B9000840030918500E09186028E2FEE0F990B34
:100BA000FC01EE0FFF1FE80FF91FE35EFC4F818190
:100BB0009281820F931F9093890080938800E09127
:100BC00086028E2FEE0F990BFC01EE0FFF1FE80F30
:100BD000F91FE35EFC4F808186FF11C0E091860221
:100BE0008E2FEE0F990BFC01EE0FFF1FE80FF91F80
:100BF000E35EFC4F808161E08F730E947C01FF9176
:100C0000EF91BF91AF919F918F917F916F915F9184
:100C10004F913F912F910F900FBE0F901F901895FD
:100C20001F920F920FB60F9211242F933F934F9361
:100C30005F936F937F938F939F93AF93BF93EF9344
:100C4000FF938091B900887F803609F44AC0F0F59F
:100C5000883209F4A5C018F5803109F499C0B8F4B8
:100C6000882309F4F5C0883009F492C0FF91EF9110
:100C7000BF91AF919F918F917F916F915F914F91B4
:100C80003F912F910F900FBE0F901F9018958831B4
:100C900009F486C0803251F780933E0414C080343A
:100CA00009F49BC040F48033B9F38833F9F680939C
:100CB0003E0485ECAEC0803509F483C0883509F464
:100CC00094C0883499F60E947202D0CF883909F412
:100CD0008AC038F5883729F050F4883611F080370B
:100CE00029F683E0809340041092840255C088382E
:100CF00009F479C0803919F0803809F0B7CF8091B4
:100D00008402803208F06FC0E091840281E08E0F8F
:100D1000809384028091BB00F0E0EC59FD4F80830A
:100D20003BC0803B39F0D0F4803A09F477C0883A70
:100D300009F09CCF84E080934004109263021092EB
:100D40006202E0E0F0E009958091620281110FC03B
:100D500081E0809362021092420209C0803C09F453
:100D6000A8CF883C09F4A5CF883B09F07FCFE0915C
:100D7000630281E08E0F80936302F0E0EE5BFD4F33
:100D800080818093BB00909163028091620229C0B0
:100D900080913B048093BB0085EC8093BC0066CFC0
:100DA00090913D0480913C04981758F5E0913D04E2
:100DB00081E08E0F80933D04F0E0E65EFB4F808182
:100DC000E9CFE0913D0481E08E0F80933D04809156
:100DD000BB00F0E0E65EFB4F808390913D04809184
:100DE0003C049817C8F285E8D8CFE0913D0481E033
:100DF0008E0F80933D048091BB00F0E0E65EFB4FD8
:100E0000808380913F0481115ECF81E080933A041A
:100E100084EA8093BC001092400428CF85EC809334
:100E2000BC001092400480918402803230F4E09142
:100E30008402F0E0EC59FD4F10826091840270E072
:100E400084E692E0E0E0F0E00995109284020ECF93
:100E500010923E0438CF613208F043C090914004B4
:100E60009111FCCF91E09093400490933F042FEFB9
:100E700020933E0410923D04260F20933C0490934F
:100E80003B0490913B04880F892B80933B04809115
:100E90003A04813001F510923A0480913B0480932A
:100EA000BB008091BC0083FDF8CF85EC8093BC0033
:100EB000809140048130E1F380913D04861710F465
:100EC00060913D04EAE1F4E0A1E4B4E080E086133F
:100ED00004C0862F089585EEE9CF91919D938F5F91
:100EE000F6CF60E0F6CF613208F048C09091400440
:100EF0009111FCCF92E09093400440933F049FEF08
:100F000090933E0410923D0460933C04AAEFB3E03A
:100F1000EAE1F4E090E069132BC010923B04909159
:100F20003B04880F892B80933B0480913A048130E5
:100F300019F510923A0480913B048093BB00809194
:100F4000BC0083FDF8CF85EC8093BC008091400409
:100F50008230E1F380913E048F3F91F080913E0416
:100F6000803281F080913E04803371F084E00895F6
:100F70002D9121939F5FCFCF85EEE6CF81E008953D
:100F800080E0089582E0089583E00895482F6091FD
:100F9000F9038091F8030E9473071092F7031092EF
:100FA000F9031092F6030895262F30E0213231051F
:100FB0000CF060E20E942B071092E9038093E80393
:100FC0000895CF93DF93CEEDD3E09B8121E0209372
:100FD000F6039093F8031092F7031092F903682F29
:100FE0008AEE93E00E94200381E00E94C60761E040
:100FF0008B810E94D4078AEE93E00E94D502DF9194
:10100000CF910895009799F0FC0101900020E9F735
:101010003197AF01481B590BE0914103F091420316
:101020000280F381E02DBC0181E493E0099480E02B
:1010300090E008958F929F92AF92BF92CF92DF92ED
:10104000EF92FF920F931F93CF93DF93CDB7DEB74D
:10105000A1970FB6F894DEBF0FBECDBF6C01990FFC
:10106000EE08FF08F7FE49C0E0914103F09142030A
:101070000190F081E02D6DE281E493E009958C010F
:1010800022273327A9012C193D094E095F0919A20E
:10109000CE0181967C019AE0892E912CA12CB12C55
:1010A000CA01B901A50194010E94E30D605DF70139
:1010B00062937F01211531054105510589F7CF0163
:1010C0000E940208080F191F8FE392E00E94020895
:1010D000800F911FA1960FB6F894DEBF0FBECDBF53
:1010E000DF91CF911F910F91FF90EF90DF90CF9004
:1010F000BF90AF909F908F900895A701960119A27D
:101100008E010F5D1F4F8AE0C82ED12CE12CF12CEF
:10111000CA01B901A70196010E94E30D605DF801C3
:1011200062938F01211531054105510589F7CF01E2
:101130000E9402088C01C8CFE0911A034E2F50E0A4
:101140004C3051057CF560911B0328E830E0261BEC
:10115000310967FD3395220F331F220F331F82178A
:10116000930784F060911C0328E532E0261B3109C7
:1011700067FD3395220F331F220F331F821793070A
:101180000CF49C0122503109220F331F8FB7F894C1
:10119000FA01EE0FFF1FE40FF51FE35EFC4F3283F1
:1011A00021838FBF0895CF93DF930E940208EC0143
:1011B0008FE392E00E9402088C0F9D1FDF91CF9178
:1011C0000895CF93C62F9091E10321E02093F60379
:1011D0009093F8031092F7031092F903682F8AEEA8
:1011E00093E00E9420036C2F8AEE93E00E9420037C
:1011F00081E00E94C60781E0CF910895EEEDF3E013
:1012000080879187682F8DE390E00E94E1086EE16E
:1012100070E080E090E00C94D304E1E4F3E013820A
:10122000128288EE93E0A0E0B0E084839583A683E9
:10123000B78388E291E09183808385EC90E0958785
:10124000848784EC90E09787868780EC90E0918B90
:10125000808B81EC90E0938B828B82EC90E0958B7D
:10126000848B86EC90E0978B868B118E128E138E7A
:10127000148E0895CF93DF93CDB7DEB7A4970FB642
:10128000F894DEBF0FBECDBF0E940402E09151036F
:10129000F091520382E08083E0914D03F0914E0380
:1012A0001082E0914F03F09150038FEC80831092F5
:1012B0005903E0915503F091560386E08083E09155
:1012C0005303F0915403808180618083E091530344
:1012D000F0915403808188608083E0915303F09102
:1012E0005403808180688083E0915303F09154031C
:1012F00080818F7D808386E491E00E94D30881E421
:1013000092E00E94D30880911A0390E00C970CF0B1
:1013100041C061E089E00E94C80180911A03282F32
:1013200030E0F901EE0FFF1FE20FF31FE35EFC4F09
:101330009081907C996090839EE890931B0394E643
:1013400090931C032CE0622F0E94290F829FB00112
:1013500011249B01245F3F4F2617370709F475C2FC
:10136000FB01EE0FFF1FE60FF71FE35EFC4F9081BE
:101370006F5F7F4F96FFF0CFE0911A038E2F90E0C2
:10138000FC01EE0FFF1FE80FF91FE35EFC4F8081A9
:10139000806480831092E9031092E8031092F703AF
:1013A0001092F9030E94A40280E090E00E94E107FD
:1013B000803AB1F480E090E00E94FE0860E28FE3A2
:1013C00090E00E94E10880E090E00E94E107803A0E
:1013D000C1F06AE070E080E090E00E94D304F3CFB7
:1013E00068EE73E080E090E00E94D30480E090E03B
:1013F0000E94E107803AF1F282E092E00E94020846
:10140000FFCF62E370E080E090E00E94D30460E0F0
:101410008EE390E00E94E1086AE070E080E090E0F6
:101420000E94D30460E087E090E00E94E10860E061
:101430008FE390E00E94E1086AE070E080E090E0D5
:101440000E94D3048CE090E00E94FE0864E170E00A
:1014500080E090E00E94D30461E085E00E94C80132
:1014600061E086E00E94C80161E087E00E94C80157
:1014700060E08EE00E94C80160E080E10E94C80147
:1014800060E08FE00E94C80160E081E10E94C80135
:1014900060E082E00E94C80160E083E00E94C80131
:1014A00060E084E00E94C80161E088E00E94C80119
:1014B00061E088E00E947C016EE571E08FEF92E0D0
:1014C0000E945C1011E0109308038BE391E090936D
:1014D0000A0380930903E6E1EE2EF12CF0920C034F
:1014E000E0920B0310930D038FEF92E00E9402082D
:1014F00080910B0390910C030E941A088DE290E0FA
:101500000E941A0867E871E08EEE92E00E945C107B
:1015100082E08093F702F092F902E092F802F2E49E
:10152000EF2EF12CF092FB02E092FA021093FC02F3
:101530006AE971E08FED92E00E945C1083E0809395
:10154000E802F092EA02E092E902AEE6EA2EF12C1D
:10155000F092EC02E092EB021093ED026DEA71E082
:1015600080ED92E00E945C1084E08093D902F092BA
:10157000DB02E092DA02BAE9EB2EF12CF092DD0206
:10158000E092DC021093DE0260EC71E081EC92E00C
:101590000E945C1085E08093CA02F092CC02E09237
:1015A000CB0206ECE02EF12CF092CE02E092CD02BE
:1015B0001093CF0263ED71E082EB92E00E945C1029
:1015C00086E08093BB02F092BD02E092BC0282EF03
:1015D000E82EF12CF092BF02E092BE021093C002FE
:1015E00066EE71E083EA92E00E945C1087E08093EF
:1015F000AC02F092AE02E092AD029EE1E92EFF2431
:10160000F394F092B002E092AF021093B10269EF4E
:1016100071E084E992E00E945C1088E080939D0272
:10162000F0929F02E0929E028AE491E09093A102E0
:101630008093A0021093A2020E945103809116038E
:1016400090911703A0911803B09119038091120390
:1016500090911303A0911403B091150310920E03FF
:1016600010920F03109210031092110380919302B5
:1016700080919202809191021092900287E691E00F
:101680000E94D30868EE73E080E090E00E94D304EB
:101690000091E6031091E70380E090E00E94FE08CD
:1016A00069E170E080E090E00E94D30460E087E0B0
:1016B00090E00E94E10860E88FE390E00E94E1087A
:1016C0006AE070E080E090E00E94D304C8010E94CC
:1016D000FE0864E170E080E090E00E94D30427E01F
:1016E000222E312C38E0832E912C06E010E045E0CC
:1016F000E42EF12C54E0C52ED12C62E0A62EB12CA4
:10170000BE016F5F7F4F8EED93E00E9473038D8962
:101710009E89AF89B88D8093160390931703A09389
:101720001803B0931903898D9A8DAB8DBC8D80936E
:10173000120390931303A0931403B09315038D8D9C
:101740009E8DAF8DB8A180930E0390930F03A0934D
:101750001003B093110385E390E00E94E107982FF6
:101760009295969596959370282F30E0A90164E0A4
:10177000559547956A95E1F74370359527953595C9
:101780002795237083709093930240939202209345
:1017900091028093900264E670E080E090E00E9405
:1017A000D304409016035090170360901803709074
:1017B000190360910B0370910C03072E000C880B2A
:1017C000990B0E94070EA30192010E94420E87FF0F
:1017D00064C14090160350901703609018037090F6
:1017E00019036091FA027091FB02072E000C880B1E
:1017F000990B0E94070EA30192010E94420E87FDE1
:1018000036C02091FD023091FE028091F70290E0F7
:101810008217930709F44DC18DE791E00E94D30828
:1018200061E085E00E947C0160E086E00E947C012E
:1018300060E087E00E947C01B092FE02A092FD026F
:101840008CED95E00E949C0834C1811195CD1092D9
:10185000800082E0809381001092850010928400C5
:10186000B19A80916F00826080936F0085CD409027
:10187000160350901703609018037090190360913D
:10188000EB027091EC02072E000C880B990B0E9462
:10189000070EA30192010E94420E87FF50C04090A4
:1018A000160350901703609018037090190360910D
:1018B000DC027091DD02072E000C880B990B0E9450
:1018C000070EA30192010E94420E87FF5EC0409066
:1018D00016035090170360901803709019036091DD
:1018E000CD027091CE02072E000C880B990B0E943E
:1018F000070EA30192010E94420E87FD66C020914F
:10190000FD023091FE028091CA0290E08217930797
:1019100009F4CFC086EB91E00E94D30860E085E037
:101920000E947C0160E086E00E947C0161E087E02B
:101930000E947C01F092FE02E092FD02BAC020916A
:10194000FD023091FE028091E80290E08217930739
:1019500009F4AFC080E991E00E94D30860E085E01F
:101960000E947C0161E086E00E947C0160E087E0EB
:101970000E947C0180ED97E00E949C0883E090E04B
:101980009093FE028093FD0294C02091FD0230915D
:10199000FE028091D90290E08217930709F489C072
:1019A00083EA91E00E94D30861E085E00E947C0117
:1019B00061E086E00E947C0160E087E00E947C019B
:1019C000D092FE02C092FD0274C040901603509067
:1019D000170360901803709019036091BE02709114
:1019E000BF02072E000C880B990B0E94070EA30163
:1019F00092010E94420E87FD20C02091FD0230918D
:101A0000FE028091BB0290E08217930709F451C057
:101A100089EC91E00E94D30861E085E00E947C019E
:101A200060E086E00E947C0161E087E00E947C012A
:101A30001093FE020093FD023CC0409016035090AC
:101A4000170360901803709019036091AF027091B2
:101A5000B002072E000C880B990B0E94070EA30101
:101A600092010E94420E87FF27C0409016035090BB
:101A7000170360901803709019036091A002709191
:101A8000A102072E000C880B990B0E94070EA301E0
:101A900092010E94420E87FF2EC02091FD023091DC
:101AA000FE028091080390E08217930711F00E94D4
:101AB00051030E94720124CE2091FD023091FE025A
:101AC0008091AC0290E08217930799F38CED91E03E
:101AD0000E94D30860E085E00E947C0161E086E01E
:101AE0000E947C0161E087E00E947C013092FE024E
:101AF0002092FD02DECF2091FD023091FE02809106
:101B00009D0290E082179307A1F28FEE91E00E9470
:101B1000D30861E085E00E947C0161E086E00E94DC
:101B20007C0161E087E00E947C019092FE0280923D
:101B3000FD02BFCFEAEEF3E01382128288EE93E05B
:101B4000A0E0B0E084839583A683B78388E191E029
:101B500091838083089520918502822F90E08C30BC
:101B600091053CF531E0320F3093850220931A0342
:101B7000FC01EE0FFF1FE80FF91FE35EFC4F88EB3F
:101B80009BE0928381838AE091E09093DF038093CE
:101B9000DE0387E390E0A0E0B0E08093E20390935F
:101BA000E303A093E403B093E50388E28093E103A9
:101BB00008958FEF80931A03E6CF0E940D090E94CB
:101BC0009A0D0C94AB0DA1E21A2EAA1BBB1BFD01B2
:101BD0000DC0AA1FBB1FEE1FFF1FA217B307E4070C
:101BE000F50720F0A21BB30BE40BF50B661F771F64
:101BF000881F991F1A9469F7609570958095909544
:101C00009B01AC01BD01CF010895E89409C097FB89
:101C10003EF490958095709561957F4F8F4F9F4FC3
:101C20009923A9F0F92F96E9BB279395F695879507
:101C300077956795B795F111F8CFFAF4BB0F11F4CA
:101C400060FF1BC06F5F7F4F8F4F9F4F16C0882371
:101C500011F096E911C0772321F09EE8872F762FA7
:101C600005C0662371F096E8862F70E060E02AF0E8
:101C70009A95660F771F881FDAF7880F96958795D4
:101C800097F908950E94B40E08F48FEF08950E940A
:101C90005A0E0C94EF0E0E94E10E38F00E94E80EEE
:101CA00020F0952311F00C94D80E0C94DE0E112424
:101CB0000C94230F0E94000F70F3959FC1F3950FB2
:101CC00050E0551F629FF001729FBB27F00DB11DC0
:101CD000639FAA27F00DB11DAA1F649F6627B00D50
:101CE000A11D661F829F2227B00DA11D621F739F39
:101CF000B00DA11D621F839FA00D611D221F749F47
:101D00003327A00D611D231F849F600D211D822F8D
:101D1000762F6A2F11249F5750409AF0F1F08823B4
:101D20004AF0EE0FFF1FBB1F661F771F881F9150E1
:101D30005040A9F79E3F510580F00C94D80E0C94AA
:101D4000230F5F3FE4F3983ED4F38695779567952C
:101D5000B795F795E7959F5FC1F7FE2B880F911D0B
:101D60009695879597F90895990F0008550FAA0B36
:101D7000E0E8FEEF16161706E807F907C0F012169E
:101D80001306E407F50798F0621B730B840B950BA1
:101D900039F40A2661F0232B242B252B21F40895F6
:101DA0000A2609F4A140A6958FEF811D811D089593
:101DB00097F99F6780E870E060E008959FEF80ECFE
:101DC000089500240A9416161706180609060895A1
:101DD00000240A9412161306140605060895092E07
:101DE0000394000C11F4882352F0BB0F40F4BF2B76
:101DF00011F460FF04C06F5F7F4F8F4F9F4F0895B6
:101E000057FD9058440F551F59F05F3F71F04795AB
:101E1000880F97FB991F61F09F3F79F08795089590
:101E2000121613061406551FF2CF4695F1DF08C0AF
:101E3000161617061806991FF1CF869571056105CC
:101E400008940895E894BB2766277727CB0197F974
:101E50000895991B79E004C0991F961708F0961B06
:101E6000881F7A95C9F780950895EE0FFF1F05909A
:101E7000F491E02D09940F931F93CF93DF93823059
:101E8000910510F482E090E0E0916304F091640425
:101E900020E030E0A0E0B0E0309719F140815181BE
:101EA0000281138148175907C8F08417950769F410
:101EB000109731F012960C93129713961C9327C02B
:101EC000009363041093640422C02115310519F0B6
:101ED0004217530718F49A01BD01EF01DF01F80121
:101EE000DBCF21153105F9F0281B390B24303105E2
:101EF00080F48A819B816115710521F0FB01938338
:101F0000828304C09093640480936304FE0132963C
:101F100044C0FE01E20FF31F8193919322503109D7
:101F2000398328833AC02091610430916204232BC5
:101F300041F4209102013091030130936204209317
:101F4000610420910001309101012115310541F416
:101F50002DB73EB74091040150910501241B350B6C
:101F6000E0916104F0916204E217F307A0F42E1BE4
:101F70003F0B2817390778F0AC014E5F5F4F2417ED
:101F8000350748F04E0F5F1F509362044093610481
:101F90008193919302C0E0E0F0E0CF01DF91CF9117
:101FA0001F910F910895CF93DF93009709F481C09B
:101FB000FC01329713821282A0916304B0916404F1
:101FC000109781F420813181820F931F2091610449
:101FD000309162042817390751F5F0936204E093B9
:101FE000610467C0ED0120E030E0CE17DF0740F468
:101FF0004A815B819E0141155105F1F0EA01F5CF5F
:10200000D383C28340815181840F951FC817D9079C
:1020100059F488819981840F951F0296918380835A
:102020008A819B81938382832115310529F4F09362
:102030006404E09363043DC0E901FB83EA834991B2
:102040005991C40FD51FEC17FD0761F48081918170
:10205000840F951F0296E901998388838281938179
:102060009B838A83E0E0F0E012968D919C91139718
:10207000009719F0FD01DC01F7CF8D919C9111972C
:102080009D012E5F3F4F820F931F2091610430917D
:1020900062042817390769F4309729F41092640410
:1020A0001092630402C013821282B0936204A09360
:1020B0006104DF91CF910895FB01DC0101900D9245
:1020C0000020E1F70895FB01DC014150504048F049
:1020D00001900D920020C9F701C01D92415050405F
:0820E000E0F70895F894FFCF2A
:1020E8000000650420000000000070027103710206
:1020F80073033604000000002003F302EB02D5024C
:10210800C302C2020000000009018700D200B0002B
:10211800C400500153776974636820746F200042CB
:102128004E4F303535004F7269656E746174696F52
:102138006E2053656E736F7220546573740043612B
:102148006D65726120310046696E69736865642047
:10215800496E697469616C697A696E670053776959
:1021680074636820746F2043616D6572612032006A
:1021780053776974636820746F2043616D65726179
:1021880020330053776974636820746F2043616D4E
:1021980065726120340053776974636820746F2016
:1021A80043616D65726120350053776974636820F7
:1021B800746F2043616D65726120360053776974CE
:1021C800636820746F2043616D6572612037005326
:1021D800776974636820746F2043616D657261204C
:1021E80038004F6F6F70732C206E6F20424E4F3047
:1021F8003535206465746563746564202E2E2E2041
:10220800436865636B20796F757220776972696EB0
:1022180067206F7220493243204144445221000D07
:022228000A00AA
:00000001FF
